:100000000C942A000C9447000C9447000C94470071
:100010000C9447000C9447000C9447000C94470044
:100020000C9447000C9447000C9447000C94470034
:100030000C9447000C9447000C9447000C94470024
:100040000C9447000C9447000C9447000C94470014
:100050000C94470011241FBECFE5D8E0DEBFCDBF12
:1000600010E0A0E6B0E0E0EAF3E102C005900D92F6
:10007000A638B107D9F710E0A6E8B0E001C01D929C
:10008000A838B107E1F70E9402010C94CE090C9444
:100090000000AD9A82E08A95F1F700C0AD988FE933
:1000A0009FE00197F1F700C000000895CF93C82F9B
:1000B00085B38F7585BB85B3679566276795682B74
:1000C00065BBAE9888B38F7088BB88B39C2F907F38
:1000D000892B88BB0E94490088B38F7088BB88B386
:1000E000C295C07FC82BC8BB0E944900CF9108951C
:1000F000662321F480580E9456000895613021F44F
:10010000805460E00E9456000895CF93DF93EC0185
:100110008881882339F0219661E00E9456008991F8
:100120008823D1F7DF91CF910895EF92FF920F933B
:100130001F93CF93DF9300D000D00F92CDB7DEB7DF
:10014000DE011196E0E6F0E085E001900D9281502D
:10015000E1F78E010F5F1F4F0F2EF6E0EF2EFF2409
:10016000F02DEC0EFD1EF80181918F0160E00E94E0
:1001700056000E151F05B9F70F900F900F900F90B6
:100180000F90DF91CF911F910F91FF90EF90089505
:1001900080918700803139F580918600882361F451
:1001A0001092870081E0809386001092840080E0A6
:1001B00061E00E94780020C08130A9F4109287008D
:1001C000109286008FEF8093840081E060E00E94AF
:1001D0005600809184008F5F809384006091860038
:1001E0000E94780009C0809184008F5F8093840012
:1001F000609186000E947800809187008F5F8093D5
:100200008700089580EF8ABB87B38FEF87BB94B3D5
:10021000916A94BB81BB83B7816083BF0E949500C4
:1002200085E690E00E94850080EC60E00E94560028
:1002300084E790E00E9485008FEF99E6A8E1815065
:100240009040A040E1F700C0000081E060E00E9423
:100250005600D0E022243324FF24DD24EE24CC24D5
:10026000BB24AA24992488240F2EFFE06F2EF02DA2
:100270000F2EF5E04F2E5524F02D01E010E0C1E0E7
:1002800077247A9412BE6BBA89B38F708F30E1F302
:10029000AFECB7E01197F1F700C0000089B38F70A1
:1002A0008F3091F38BB38F708BBB8BB3806E8BBB16
:1002B00089B38F7089BB8F30B9F4C201582F2BB32B
:1002C0002F702BBB4BB39801082E02C0220F331F97
:1002D0000A94E2F72095207F242B2BBB29B32F70A3
:1002E00029BB2F3051F001C054E0D9B3DF700F2E7D
:1002F000F7E02F2EF02D251A04C0019688309105C5
:10030000E9F6DE3069F0DD3039F0DB3039F0D73036
:1003100009F0A5C793E005C09C2F03C092E001C07F
:1003200090E08C2F211080E02C2F911120E0882369
:1003300059F1222349F182B78035E0F072BA8FEF8C
:1003400091EEA4E081509040A040E1F700C0000091
:1003500012BA8FEF91EEA4E081509040A040E1F7F7
:1003600000C000000E94C80081E36C2F0E9456006C
:1003700012BE75C781E36C2F0E94560080E160E0D9
:100380000E94560012BE6BC74C2FA1E02A1240E01B
:10039000222309F4C0C0442309F4BDC0882049F5D4
:1003A00082B78035E0F072BA8FEF91EEA4E0815011
:1003B0009040A040E1F700C0000012BA8FEF91EE2C
:1003C000A4E081509040A040E1F700C000000E94EE
:1003D000C80082E36C2F0E94560012BE45C782E31C
:1003E0006C2F0E94560080E160E00E94560012BE11
:1003F0008DC791E0891649F582B78035E0F072BA71
:100400008FEF91EEA4E081509040A040E1F700C052
:10041000000012BA8FEF91EEA4E081509040A0400E
:10042000E1F700C000000E94C80081E46C2F0E9428
:10043000560012BE19C781E46C2F0E94560080E15D
:1004400060E00E94560012BE61C792E0891649F52D
:1004500082B78035E0F072BA8FEF91EEA4E0815060
:100460009040A040E1F700C0000012BA8FEF91EE7B
:10047000A4E081509040A040E1F700C000000E943D
:10048000C80082E46C2F0E94560012BEEDC682E4C2
:100490006C2F0E94560080E160E00E94560012BE60
:1004A00035C793E0891649F582B78035E0F072BA16
:1004B0008FEF91EEA4E081509040A040E1F700C0A2
:1004C000000012BA8FEF91EEA4E081509040A0405E
:1004D000E1F700C000000E94C80083E46C2F0E9476
:1004E000560012BE0FC083E46C2F0E94560080E1BC
:1004F00060E00E94560012BE05C0839494E0891605
:1005000009F064C6FF24DD24EE24CC24BB24AA24F5
:1005100099248824A4C63C2FA2E02A1230E022238A
:1005200009F4C0C0332309F4BDC0992049F582B74E
:100530008035E0F072BA8FEF91EEA4E081509040E8
:10054000A040E1F700C0000012BA8FEF91EEA4E0E6
:1005500081509040A040E1F700C000000E94C80018
:1005600083E36C2F0E94560012BE87C683E36C2F74
:100570000E94560080E160E00E94560012BECFC685
:1005800091E0991649F582B78035E0F072BA8FEFA5
:1005900091EEA4E081509040A040E1F700C000003F
:1005A00012BA8FEF91EEA4E081509040A040E1F7A5
:1005B00000C000000E94C80084E46C2F0E94560016
:1005C00012BE5BC684E46C2F0E94560080E160E09E
:1005D0000E94560012BEA3C692E0991649F582B752
:1005E0008035E0F072BA8FEF91EEA4E08150904038
:1005F000A040E1F700C0000012BA8FEF91EEA4E036
:1006000081509040A040E1F700C000000E94C80067
:1006100085E46C2F0E94560012BE2FC685E46C2F15
:100620000E94560080E160E00E94560012BE77C62C
:1006300093E0991649F582B78035E0F072BA8FEFF2
:1006400091EEA4E081509040A040E1F700C000008E
:1006500012BA8FEF91EEA4E081509040A040E1F7F4
:1006600000C000000E94C80086E46C2F0E94560063
:1006700012BE0FC086E46C2F0E94560080E160E03D
:100680000E94560012BE05C0939494E0991609F09A
:10069000A5C5FF24DD24EE24CC24BB24AA24992460
:1006A0008824DDC52C2F913009F020E0882309F43F
:1006B000C0C0222309F4BDC0AA2049F582B7803505
:1006C000E0F072BA8FEF91EEA4E081509040A0402C
:1006D000E1F700C0000012BA8FEF91EEA4E0815064
:1006E0009040A040E1F700C000000E94C80084E3F1
:1006F0006C2F0E94560012BEC9C584E36C2F0E9465
:10070000560080E160E00E94560012BE11C691E0E2
:10071000A91649F582B78035E0F072BA8FEF91EEF5
:10072000A4E081509040A040E1F700C0000012BA60
:100730008FEF91EEA4E081509040A040E1F700C01F
:1007400000000E94C80087E46C2F0E94560012BE71
:100750009DC587E46C2F0E94560080E160E00E94F6
:10076000560012BEE5C592E0A91649F582B780355C
:10077000E0F072BA8FEF91EEA4E081509040A0407B
:10078000E1F700C0000012BA8FEF91EEA4E08150B3
:100790009040A040E1F700C000000E94C80088E43B
:1007A0006C2F0E94560012BE71C588E46C2F0E9407
:1007B000560080E160E00E94560012BEB9C593E089
:1007C000A91649F582B78035E0F072BA8FEF91EE45
:1007D000A4E081509040A040E1F700C0000012BAB0
:1007E0008FEF91EEA4E081509040A040E1F700C06F
:1007F00000000E94C80089E46C2F0E94560012BEBF
:100800000FC089E46C2F0E94560080E160E00E94D6
:10081000560012BE05C0A39494E0A91609F0E6C4E0
:10082000FF24DD24EE24CC24BB24AA24992488248C
:1008300016C5442309F4C0C0222309F4BDC0BB205F
:1008400049F582B78035E0F072BA8FEF91EEA4E0FF
:1008500081509040A040E1F700C0000012BA8FEF35
:1008600091EEA4E081509040A040E1F700C000006C
:100870000E94C80085E36C2F0E94560012BE0FC56F
:1008800085E36C2F0E94560080E160E00E945600D4
:1008900012BE57C591E0B91649F582B78035E0F030
:1008A00072BA8FEF91EEA4E081509040A040E1F742
:1008B00000C0000012BA8FEF91EEA4E0815090408A
:1008C000A040E1F700C000000E94C8008AE46C2F3D
:1008D0000E94560012BEE3C48AE46C2F0E945600A8
:1008E00080E160E00E94560012BE2BC592E0B9166E
:1008F00049F582B78035E0F072BA8FEF91EEA4E04F
:1009000081509040A040E1F700C0000012BA8FEF84
:1009100091EEA4E081509040A040E1F700C00000BB
:100920000E94C8008BE46C2F0E94560012BEB7C410
:100930008BE46C2F0E94560080E160E00E9456001C
:1009400012BEFFC493E0B91649F582B78035E0F0D6
:1009500072BA8FEF91EEA4E081509040A040E1F791
:1009600000C0000012BA8FEF91EEA4E081509040D9
:10097000A040E1F700C000000E94C8008CE46C2F8A
:100980000E94560012BE0FC08CE46C2F0E945600CD
:1009900080E160E00E94560012BE05C0B39494E06E
:1009A000B91609F02BC4FF24DD24EE24CC24BB248B
:1009B000AA249924882453C4332309F4C0C02223D1
:1009C00009F4BDC0CC2049F582B78035E0F072BA99
:1009D0008FEF91EEA4E081509040A040E1F700C07D
:1009E000000012BA8FEF91EEA4E081509040A04039
:1009F000E1F700C000000E94C80086E36C2F0E944F
:100A0000560012BE55C486E36C2F0E94560080E14A
:100A100060E00E94560012BE9DC491E0C91649F5DF
:100A200082B78035E0F072BA8FEF91EEA4E081508A
:100A30009040A040E1F700C0000012BA8FEF91EEA5
:100A4000A4E081509040A040E1F700C000000E9467
:100A5000C8008DE46C2F0E94560012BE29C48DE49C
:100A60006C2F0E94560080E160E00E94560012BE8A
:100A700071C492E0C91649F582B78035E0F072BAC8
:100A80008FEF91EEA4E081509040A040E1F700C0CC
:100A9000000012BA8FEF91EEA4E081509040A04088
:100AA000E1F700C000000E94C8008EE46C2F0E9495
:100AB000560012BEFDC38EE46C2F0E94560080E1EA
:100AC00060E00E94560012BE45C493E0C91649F585
:100AD00082B78035E0F072BA8FEF91EEA4E08150DA
:100AE0009040A040E1F700C0000012BA8FEF91EEF5
:100AF000A4E081509040A040E1F700C000000E94B7
:100B0000C8008FE46C2F0E94560012BE0FC08FE405
:100B10006C2F0E94560080E160E00E94560012BED9
:100B200005C0C39494E0C91609F070C3FF24DD2406
:100B3000EE24CC24BB24AA249924882490C32C2FEF
:100B4000923009F020E0882309F4ECC0222309F454
:100B5000E9C0EE2049F582B78035E0F072BA8FEF38
:100B600091EEA4E081509040A040E1F700C0000069
:100B700012BA8FEF91EEA4E081509040A040E1F7CF
:100B800000C000000E94C80087E36C2F0E9456003E
:100B900012BE97C387E36C2F0E94560080E160E08D
:100BA0000E94560012BEDFC391E0E91649F582B7F4
:100BB0008035E0F072BA8FEF91EEA4E08150904062
:100BC000A040E1F700C0000012BA8FEF91EEA4E060
:100BD00081509040A040E1F700C000000E94C80092
:100BE00080E56C2F0E94560012BE6BC380E56C2F0F
:100BF0000E94560080E160E00E94560012BEB3C31E
:100C000092E0E91649F582B78035E0F072BA8FEFCD
:100C100091EEA4E081509040A040E1F700C00000B8
:100C200012BA8FEF91EEA4E081509040A040E1F71E
:100C300000C000000E94C80081E56C2F0E94560091
:100C400012BE3FC381E56C2F0E94560080E160E038
:100C50000E94560012BE87C393E0E91649F582B799
:100C60008035E0F072BA8FEF91EEA4E081509040B1
:100C7000A040E1F700C0000012BA8FEF91EEA4E0AF
:100C800081509040A040E1F700C000000E94C800E1
:100C900082E56C2F0E94560012BE13C382E56C2FB2
:100CA0000E94560080E160E00E94560012BE5BC3C5
:100CB00094E0E91649F582B78035E0F072BA8FEF1B
:100CC00091EEA4E081509040A040E1F700C0000008
:100CD00012BA8FEF91EEA4E081509040A040E1F76E
:100CE00000C000000E94C80083E56C2F0E945600DF
:100CF00012BE0FC083E56C2F0E94560080E160E0B9
:100D00000E94560012BE05C0E39495E0E91609F072
:100D100085C2FF24DD24EE24CC24BB24AA249924FC
:100D200088249DC2442309F4C0C0222309F4BDC015
:100D3000DD2049F582B78035E0F072BA8FEF91EE91
:100D4000A4E081509040A040E1F700C0000012BA3A
:100D50008FEF91EEA4E081509040A040E1F700C0F9
:100D600000000E94C80088E36C2F0E94560012BE4B
:100D7000B1C288E36C2F0E94560080E160E00E94BF
:100D8000560012BEF9C291E0D91649F582B78035F6
:100D9000E0F072BA8FEF91EEA4E081509040A04055
:100DA000E1F700C0000012BA8FEF91EEA4E081508D
:100DB0009040A040E1F700C000000E94C80084E518
:100DC0006C2F0E94560012BE85C284E56C2F0E94D3
:100DD000560080E160E00E94560012BECDC292E053
:100DE000D91649F582B78035E0F072BA8FEF91EEEF
:100DF000A4E081509040A040E1F700C0000012BA8A
:100E00008FEF91EEA4E081509040A040E1F700C048
:100E100000000E94C80085E56C2F0E94560012BE9B
:100E200059C285E56C2F0E94560080E160E00E9467
:100E3000560012BEA1C293E0D91649F582B780359B
:100E4000E0F072BA8FEF91EEA4E081509040A040A4
:100E5000E1F700C0000012BA8FEF91EEA4E08150DC
:100E60009040A040E1F700C000000E94C80086E565
:100E70006C2F0E94560012BE0FC086E56C2F0E9498
:100E8000560080E160E00E94560012BE05C0D39477
:100E900094E0D91609F0CAC1FF24DD24EE24CC2445
:100EA000BB24AA2499248824DAC1332309F4ECC092
:100EB000222309F4E9C0FF2049F582B78035E0F02C
:100EC00072BA8FEF91EEA4E081509040A040E1F71C
:100ED00000C0000012BA8FEF91EEA4E08150904064
:100EE000A040E1F700C000000E94C80089E36C2F19
:100EF0000E94560012BEF7C189E36C2F0E94560073
:100F000080E160E00E94560012BE3FC291E0F916F7
:100F100049F582B78035E0F072BA8FEF91EEA4E028
:100F200081509040A040E1F700C0000012BA8FEF5E
:100F300091EEA4E081509040A040E1F700C0000095
:100F40000E94C80087E56C2F0E94560012BECBC1DC
:100F500087E56C2F0E94560080E160E00E945600F9
:100F600012BE13C292E0F91649F582B78035E0F05F
:100F700072BA8FEF91EEA4E081509040A040E1F76B
:100F800000C0000012BA8FEF91EEA4E081509040B3
:100F9000A040E1F700C000000E94C80088E56C2F67
:100FA0000E94560012BE9FC188E56C2F0E94560019
:100FB00080E160E00E94560012BEE7C193E0F9169E
:100FC00049F582B78035E0F072BA8FEF91EEA4E078
:100FD00081509040A040E1F700C0000012BA8FEFAE
:100FE00091EEA4E081509040A040E1F700C00000E5
:100FF0000E94C80089E56C2F0E94560012BE73C182
:1010000089E56C2F0E94560080E160E00E94560046
:1010100012BEBBC194E0F91649F582B78035E0F005
:1010200072BA8FEF91EEA4E081509040A040E1F7BA
:1010300000C0000012BA8FEF91EEA4E08150904002
:10104000A040E1F700C000000E94C8008AE56C2FB4
:101050000E94560012BE0FC08AE56C2F0E945600F7
:1010600080E160E00E94560012BE05C0F39495E056
:10107000F91609F0E3C0FF24DD24EE24CC24BB24C0
:10108000AA2499248824EBC02C2F933009F020E067
:10109000882359F1222349F182B78035E0F072BAF2
:1010A0008FEF91EEA4E081509040A040E1F700C0A6
:1010B000000012BA8FEF91EEA4E081509040A04062
:1010C000E1F700C000000E94C8008AE26C2F0E9475
:1010D000560012BEC4C08AE26C2F0E94560080E106
:1010E00060E00E94560012BEBAC0442309F443C017
:1010F000222309F440C0332051F582B78035E0F057
:1011000072BA8FEF91EEA4E081509040A040E1F7D9
:1011100000C0000012BA8FEF91EEA4E08150904021
:10112000A040E1F700C000000E94C80080E36C2FDF
:101130000E94560012BEE0C080E36C2F0E94560051
:1011400080E160E00E94560012BE33940BC091E033
:10115000391619F40E94C800CFC03394A3E03A16A0
:1011600009F474C0FF24DD24EE24CC24BB24AA247B
:101170009924882474C0332309F471C0222309F40C
:101180006EC082B78035C0F072BA8FEF91EEA4E0E6
:1011900081509040A040E1F700C0000012BA8FEFEC
:1011A00091EEA4E081509040A040E1F700C0000023
:1011B0000E94C80012BE53C083E26C2F0E945600EA
:1011C00080E160E00E94560012BE49C0FF24DD2489
:1011D000EE24CC24BB24AA24992441C0FF24DD247E
:1011E000EE24CC24BB24AA24882439C0FF24DD2487
:1011F000EE24CC24BB249924882431C0FF24DD2490
:10120000EE24CC24AA249924882429C0FF24DD2498
:10121000EE24BB24AA249924882421C0FF24DD24A1
:10122000CC24BB24AA249924882419C0FF24EE24AA
:10123000CC24BB24AA249924882411C0DD24EE24C4
:10124000CC24BB24AA249924882409C03324FF2455
:10125000DD24EE24CC24BB24AA249924882489B339
:101260008F708F30E1F70EC88394FF24DD24EE24C5
:10127000CC24BB24AA249924F2CF9394FF24DD2408
:10128000EE24CC24BB24AA248824E9CFA394FF24F1
:10129000DD24EE24CC24BB2499248824E0CFB3940D
:1012A000FF24DD24EE24CC24AA2499248824D7CF3B
:1012B000C394FF24DD24EE24BB24AA24992488248B
:1012C000CECFE394FF24DD24CC24BB24AA2499248C
:1012D0008824C5CFD394FF24EE24CC24BB24AA2495
:1012E00099248824BCCFF394DD24EE24CC24BB24A1
:1012F000AA2499248824B3CF3394FF24DD24EE2438
:10130000CC24BB24AA2499248824A9CF8394FF2425
:10131000DD24EE24CC24BB24AA249924A0CF9394CA
:10132000FF24DD24EE24CC24BB24AA24882497CFD8
:10133000A394FF24DD24EE24CC24BB249924882408
:101340008ECFB394FF24DD24EE24CC24AA24992448
:10135000882485CFC394FF24DD24EE24BB24AA2453
:10136000992488247CCFE394FF24DD24CC24BB245F
:10137000AA249924882473CFD394FF24EE24CC2468
:10138000BB24AA24992488246ACFF394DD24EE2474
:10139000CC24BB24AA249924882461CFF894FFCFBD
:1013A0003332280C8057656C636F6D6520746F2035
:1013B0006F6C640070686F6E65206B657970616436
:0613C0005F5E5F00FF000C
:00000001FF
